:100000000AC03FC03EC03DC03CC03BC03AC039C042
:1000100038C037C036C011271FBFCFE5D0E0DEBFE4
:0A002000CDBF03D000C0F894FFCF5D
:10002A0048ED4CBF16BF43E041B951E042E052B936
:10003A006FE37CE961507040E9F700C0000012B933
:10004A007FEF87EE63E0715080406040E1F700C0C7
:10005A00000042B96FE37CE961507040E9F700C0E3
:10006A00000012B97FEF87EB6BE07150804060406F
:08007A00E1F700C00000DBCF3C
:02008200BECFEF
:00000001FF
