:100000000DC036C135C134C19DC032C131C130C10E
:100010002FC12EC12DC100400045800011271FBFF8
:10002000CFE5D0E0DEBFCDBFC6E1D0E440E415C0EF
:10003000B991A99139912991099107FD0AC0F991C6
:10004000E991E050F04C51915D93A217B307D9F7B5
:1000500004C01D93A217B307E1F7CB31D40741F7D2
:0800600003D000C0F894FFCFAB
:10006800CF93DF9300D000D0CDB7DEB748ED4CBFBB
:1000780016BFA2D0482F50E060E070E0440F551F33
:10008800661F771F440F551F661F771F440F551FA4
:10009800661F771F440F551F661F771FB72FA62FA0
:1000A800952F842F880F991FAA1FBB1F880F991F90
:1000B800AA1FBB1F480F591F6A1F7B1FB72FA62FE8
:1000C800952F842F880F991FAA1FBB1F880F991F70
:1000D800AA1FBB1F480F591F6A1F7B1FB72FA62FC8
:1000E800952F842F880F991FAA1FBB1F880F991F50
:1000F800AA1FBB1F480F591F6A1F7B1F689414F95A
:1001080076956795579547951695D1F740A951A9C2
:1001180062A973A91DBB42E045BF43E041B94BB595
:100128004E7F4BBD1DBD1EBD44E04DBD41E04BBDE6
:0C013800789419BD18BD49E04ABFFECF05
:100144001F930F930FB70F9310E04F935F9344A146
:10015400413071F028F04230C1F04330F1F027C053
:10016400109A41E044A94DEF49BD4FE848BD1FC076
:10017400109842E044A940A151A151954195510BD9
:1001840059BD40A1419548BD12C0119A43E044A90C
:100194004DEF49BD4FE848BD0AC0119814A940A1CC
:1001A40051A14159504559BD40A1415948BD5F91A4
:0C01B4004F910F910FBF0F911F911895F4
:1001C000CF9342E04BBB41E84DBBFAE0E0E0CAE030
:1001D000EE9AEE99FECF49B34E2750E08E2F6C2F4A
:1001E0003BD0692F70E0842F952F23D0E60F4FE08E
:1001F00057E241505040E9F700C00000F15041F78C
:060200008E2FCF9108953E
:10020600AA1BBB1B51E107C0AA1FBB1FA617B70736
:1002160010F0A61BB70B881F991F5A95A9F7809552
:0C0226009095682F792F8A2F9B2F089548
:1002320097FB072F16F4009506D077FD08D0E2DF72
:1002420007FD05D03EF4909581959F4F08957095D6
:0602520061957F4F089545
:10025800991B79E004C0991F961708F0961B881F10
:080268007A95C9F7809508950D
:02027000C7CEF7
:00000001FF
